S01700004763634170706C69636174696F6E322E737265635A
S113000071C000008EC000008CC000008AC00000D7
S113001088C0000086C0000084C0000082C00000C8
S113002080C000007EC000007CC000007AC00000D8
S113003078C0000076C0000074C0000072C00000E8
S113004070C000006EC000006CC000006AC00000F8
S113005068C0000066C0000064C0000062C0000008
S113006060C000005EC000005CC000005AC0000018
S113007058C0000056C0000054C0000052C0000028
S113008050C000004EC000004CC000004AC0000038
S113009048C0000046C0000044C0000042C0000048
S11300A040C000003EC000003CC000003AC0000058
S11300B038C0000036C0000034C0000032C0000068
S11300C030C000002EC000002CC000002AC0000078
S11300D028C0000026C0000024C0000022C0000088
S11300E020C0000011241FBECFEFD1E2DEBFCDBF80
S11300F000E00CBF12E0A0E0B2E0EAEFF5E000E0BF
S11301000BBF02C007900D92A430B107D9F722E0CB
S1130110A4E0B2E001C01D92A931B207E1F709D20F
S11301206AC26ECF8091040281110FC086E0809371
S1130130C20083E390E09093C5008093C40088E1FB
S11301408093C10081E0809304020895FC019091A2
S11301500402992349F09091C00099233CF48091C2
S1130160C600808380E0089581E0089583E00895C7
S113017090910402992349F0E0ECF0E0908195FF1E
S1130180FDCF8093C60080E0089581E00895882320
S11301905CF4082E000C990B99231CF4919581951D
S11301A091098F71806208958F71089510920A02E7
S11301B010920902109208021092070283E08093C1
S11301C00B0281E0809300020895ACCF08958091E2
S11301D0000208950F931F93CF93DF931F92CDB71F
S11301E0DEB710910C02112339F082ECC1DF11E06B
S11301F0882349F110E027C0CE010196A7DF8111C1
S113020015C08981823CF9F481E080930C0282EC70
S1130210AFDF8981ADDF8981ABDF8981A9DF082F59
S1130220C5DF11E0002379F010E00DC080910502D4
S11302309091060201969093060280930502892B01
S113024011F48FEF95DF812F0F90DF91CF911F91E4
S11302500F91089580910C020895CF93DF931F921C
S1130260CDB7DEB7CE01019671DF811105C089815A
S1130270813C11F410920C0280910B0282FF0CC09D
S11302808FEF76DF81112DC090910B029B7F9093AD
S11302900B0210920C0225C080FF11C09091000245
S11302A080910A02989F802D112471DF806460DFA1
S11302B0811117C080910B028E7F80930B02909165
S11302C00B02892F827091FF0CC0809109025FDFBD
S11302D080684EDF811105C090910B029D7F909341
S11302E00B020F90DF91CF91089590910902961718
S11302F039F06093090290910B02926090930B0283
S113030090910A02981739F080930A0280910B02A7
S1130310816080930B0280910802841739F0409326
S1130320080280910B02846080930B028091070283
S11303308217A1F020930702213081F480910002FA
S1130340813021F482E08093000203C081E0809335
S1130350000280910B02816080930B0208958091CA
S11303600D02811108C087EF84B9289A83E58CBDFA
S113037081E080930D0280E008958091020285302F
S1130380B9F018F0863089F139C00DB407FE38C0D1
S11303909EB5E82FF0E0EC5EFD4F9083843008F4C6
S11303A01EBC809102028F5F8093020283E0089555
S11303B0289A809102028F5F80930202EFE0F2E0BC
S11303C0A4E1B2E08C91808311968C911197818382
S11303D012968C911297828313968C911397838330
S11303E014968C91848380E008952898809101026A
S11303F083708EBD1092020283E0089583E0089515
S113040083E0089580911802869581700895809103
S1130410180282FB882780F90895EFE0F2E08181D9
S113042090E0982F88272081820F911D92506EE1D1
S113043070E0BAD0862F972F8D3F2FEF92071CF4D0
S113044084E0860F06C004971CF08CEF860F01C071
S113045080E0863F0CF486EF8B300CF08AE0089540
S1130460EFE0F2E0838190E0982F88272281820FC9
S1130470911D92506EE170E097D0862F972F8D3F9B
S11304802FEF92071CF484E0860F06C004971CF03B
S11304908CEF860F01C080E0863F0CF486EF8B3032
S11304A00CF08AE0089580910E02811108C08FEF4C
S11304B0809304011092050181E080930E02089557
S11304C08FEF80930101109202010895809302013D
S11304D0089580910E02882361F0E5E0F1E09081B7
S11304E08081990F881F8827881F892B808380E04B
S11304F0089581E0089580910E02882371F0E5E06B
S1130500F1E09081208130E8939FC0011124922F63
S11305109695892B808380E0089581E008959091D9
S11305200E02992321F08093050180E0089581E073
S11305300895B9DFC5DF49DE12DFD12CE12C80E05C
S1130540C5DF8AEAECDFCD2DDE2D04C0209709F447
S1130550C0DF21963FDE8823C9F38FE0E0DF20C0AF
S11305607CDE8111B3DF09DF8330E9F356DF082F26
S113057077DF182F4CDFF82E45DF282F4F2D602F03
S1130580812FB3DE219623DE823039F4CE018F77BA
S11305909927892B29F4AFDF03C0C11101C099DF6A
S11305A059DE8111DDCFCBCF97FB072E16F40094D3
S11305B006D077FD08D00BD007FC05D03EF490950B
S11305C081959F4F0895709561957F4F0895AA1B5B
S11305D0BB1B51E107C0AA1FBB1FA617B70710F02A
S11305E0A61BB70B881F991F5A95A9F7809590955C
S10D05F0BC01CD010895F894FFCF7B
S10705FA01030600EF
S9030000FC
