S00D00004175746F312E737265634D
S113000088C00000A6C00000A4C00000A2C0000078
S1130010A0C000009EC000009CC000009AC0000068
S113002098C0000096C0000094C0000092C0000078
S113003090C000008EC000008CC000008AC0000088
S113004088C00000CEC5000084C0000082C000004B
S113005080C00000AAC200007CC000007AC000007A
S113006078C0000076C0000074C0000072C00000B8
S113007070C000006EC000006CC000006AC00000C8
S113008068C0000066C0000064C0000062C00000D8
S113009060C00000C1C400005CC000005AC0000081
S11300A058C0000056C0000054C0000052C00000F8
S11300B050C000004EC000004CC000004AC0000008
S11300C048C0000046C0000044C0000042C0000018
S11300D040C000003EC000003CC000003AC0000028
S11300E038C00000CA02D302CC02D302C802CC0238
S11300F0CA02CA02CC02C802D302CC02D302CA0288
S1130100620E6C0E760E800E8A0E940E9E0EA80E53
S1130110B20E11241FBECFEFD1E2DEBFCDBF00E08F
S11301200CBF12E0A0E0B2E0E4E7F3E200E00BBFB2
S113013002C007900D92A83BB107D9F723E0A8EBC2
S1130140B2E001C01D92A733B207E1F78FD50C943A
S1130150B81156CF8091B80281110FC086E0809308
S1130160C20083E390E09093C5008093C40088E1CB
S11301708093C10081E08093B8020895FC019091BE
S1130180B802992349F09091C00099233CF48091DE
S1130190C600808380E0089581E0089583E0089597
S11301A09091B802992349F0E0ECF0E0908195FF3A
S11301B0FDCF8093C60080E0089581E0089580918A
S11301C000028130A9F40E94890C6093B9027093F3
S11301D0BA028093BB029093BC02E9EBF2E0CB013C
S11301E09E5F91838083828193819E5F93838283C8
S11301F0809100028130A1F028F08230B1F0833088
S113020021F137C08091BB029091BC0296958795ED
S1130210929582958F7089279F708927806E19C067
S11302208091B9028F71806814C08091B902909155
S1130230BA02807E937096958795929582958F7079
S113024089279F708927806A04C08091BB028F71BF
S1130250806CA6DF81110FC0809100028F5F843013
S113026020F48093000280E008951092000280E060
S1130270089582E0089580E00895CF92DF92EF928E
S1130280FF92CF938C392FEF920714F48CE99FEFF0
S11302908536910514F084E690E0992314F4CFEFA9
S11302A001C0C1E0889F9001899F300D300D112459
S11302B080E197E26C01C21AD30A0D2C000CEE08FF
S11302C0FF08C701B6010E94E00F0E94F710EC2E50
S11302D0CC0FFF0820E030E040E05FE30E94DD0E39
S11302E00E94AD0F24E630E0C901861B970B9C01E8
S11302F0E29EC001E39E900DF29E900D1124CF91D9
S1130300FF90EF90DF90CF9008951092BE0210926C
S1130310BD0283E08093CD0208951CCF08951F93FE
S1130320CF93DF931F92CDB7DEB71091BF02112395
S113033039F080EC35DF11E0882399F010E011C02A
S1130340CE0101961BDF81110CC08981803C49F4E8
S1130350DCDF81E08093BF02898122DF11E081111B
S113036010E0812F0F90DF91CF911F91089580911C
S1130370BF0208950F931F93CF93DF931F92CDB7BE
S1130380DEB71DDF182F811142C0CE010196F6DEC3
S113039081113DC08981082F007C8F73003411F0D6
S11303A0003809F446D00038B1F0003C31F1003493
S11303B071F5482F50E02091BE02022E000C330B41
S11303C04217530721F18093BE028091CD028160D0
S11303D08093CD021CC0482F50E02091BD02022E14
S11303E0000C330B4217530791F08093BD028091A8
S11303F0CD0282608093CD020AC089818F3F39F497
S11304008091CD0284608093CD021092BF02812F2F
S11304100F90DF91CF911F910F9108958091BE02AB
S113042008958091BD0208958091CD021092CD026D
S1130430089585FF03C08F71819508958F73089582
S11304408091010208958BE28093200189E18093D9
S113045021010895109220011092210110920B01A4
S1130460089583E380930A01F5DF1092220180E06E
S113047090E2909329018093280110922B0110920D
S11304802A0110922D0110922C0108959093C30219
S11304908093C202992354F090932D0180932C01F0
S11304A0EBE0F1E0808182608083089591958195ED
S11304B0910990932D0180932C01EBE0F1E0808170
S11304C08D7F808308959093C1028093C002992305
S11304D054F090932B0180932A01EBE0F1E08081AA
S11304E081608083089591958195910990932B0162
S11304F080932A01EBE0F1E080818E7F8083089570
S1130500092E000CAA0BBB0B8093D7029093D80240
S1130510A093D902B093DA020895092E000CAA0B15
S1130520BB0B8093DD029093DE02A093DF02B093B5
S1130530E00208951092E3021092E2021092DC02AB
S11305401092DB02089582E084BD83E085BD8EE3D2
S113055087BDEEE6F0E0808182608083E9E0F1E02F
S1130560808182958F708C708093CE0280818C7094
S11305708093E102DFCF089590E0FC013197EE30E3
S1130580F10530F48827EE58FF4F8F4F0C944A1131
S113059080E0089581E00895809101028F5F809347
S11305A0010280E008958FEF08951F920F920FB615
S11305B00F9211240BB60F92CF92DF92EF92FF921B
S11305C02F933F934F935F936F937F938F939F9357
S11305D0AF93BF93CF93DF93EF93FF93E9E0F1E001
S11305E0808182958F708C709091CE0295959595AF
S11305F0892B8093CE029081292F2C709091E10257
S113060095959595922B9093E102B6DFD82F809122
S1130610E102B2DFC82F682F880F770B880B990B84
S11306200E94E00F6B017C01F7FAF094F7F8F09464
S11306306D2F0D2E000C770B880B990B0E94E00F89
S1130640A701960138D42091E2023091E3022D0FE4
S1130650311DD7FD3A953093E3022093E2022091B5
S1130660DB023091DC02C9018C0F911DC7FD9A9504
S11306709093DC028093DB02FF91EF91DF91CF91A5
S1130680BF91AF919F918F917F916F915F914F91A6
S11306903F912F91FF90EF90DF90CF900F900BBE82
S11306A00F900FBE0F901F901895DC01EEE6F0E05E
S11306B0208190819D7F90838091E2029091E3025A
S11306C08D939C938091DB029091DC02DB018D93EE
S11306D09C9320830895C5DE36CF0895B4DE10922E
S11306E0DD021092DE021092DF021092E0021092FC
S11306F0D7021092D8021092D9021092DA02109204
S1130700D3021092D4021092D5021092D602109203
S1130710CF021092D0021092D1021092D202109203
S1130720E3021092E2021092DC021092DB020895BE
S113073091CE0895CF92DF92EF92FF920F931F9381
S1130740CF93DF9300D01F92CDB7DEB7BE016D5FAC
S11307507F4FCE010196A9DFEDDEC090DD02D0907F
S1130760DE02E090DF02F090E002C114D104E10463
S1130770F10499F48091D7029091D802A091D90202
S1130780B091DA02892B8A2B8B2B39F480E090E02C
S11307907DDE80E090E097DEB5C04091D7025091B5
S11307A0D8028B819C81480F591F052E000C660BC3
S11307B0770B8091CF029091D002A091D102B09199
S11307C0D202480F591F6A1F7B1F89819A81C81A58
S11307D0D90A0D2C000CEE08FF088091D3029091E9
S11307E0D402A091D502B091D602C80ED91EEA1E39
S11307F0FB1E28EDC2162FEFD206E206F20644F4E1
S11308000F2EF8EDCF2EDD24DA94ED2CFD2CF02DF7
S113081089E2C816D104E104F1043CF00F2EF8E299
S1130820CF2ED12CE12CF12CF02DC092D302D092FA
S1130830D402E092D502F092D6029A01AB01283D8F
S11308408FEF38074807580724F428ED3FEF4FEFA0
S11308505FEF293231054105510524F028E230E0EB
S113086040E050E02093CF023093D0024093D10275
S11308705093D202A8ECB0E00E945211062F172F19
S1130880F82FE92FA70196010E945211611520EE5D
S113089072072FEF8207920724F460E070EE8FEF67
S11308A09FEFC02ED12EEF2EFE2EC11420EED206C5
S11308B02FEFE206F20644F40F2EC12CF0EEDF2EE9
S11308C0EE24EA94FE2CF02DDC01CB01813020E2F1
S11308D09207A105B10524F080E090E2A0E0B0E029
S11308E0D5DD81E0C81680E2D806E104F1042CF0DD
S11308F0C12CD12C76016894D5F8882799278C19B6
S11309009D09E1DD0F900F900F900F90DF91CF9133
S11309101F910F91FF90EF90DF90CF900895EF9289
S1130920FF920F931F93CF93DF93CDB7DEB7289732
S11309300FB6F894DEBF0FBECDBFBC0186E0809336
S1130940CA0083E390E09093CD008093CC0088E0CC
S11309508093C900EAE0F2E0DE01119601900D9265
S11309608A95E1F71092E40220E0A8ECB0E04EECA6
S113097050E09C9195FFFDCFE1E0F0E0EC0FFD1F0E
S1130980E20FF11D9081FA0190832091E4022F5F20
S11309902093E402273068F3DB010D900020E9F78F
S11309A011978D01061B170B003288F47B0140E27E
S11309B050E060E270E085EE92E00E947411A801BC
S11309C05527B70185EE92E00E946B1108C080E2C2
S11309D0FB01A5EEB2E001900D928A95E1F7109229
S11309E0E402E9ECF0E080818062808328960FB60F
S11309F0F894DEBF0FBECDBFDF91CF911F910F9151
S1130A00FF90EF90089540E250E060E270E085EEE0
S1130A1092E00C94741108951F920F920FB60F92E6
S1130A2011240BB60F928F93EF93FF93E091E4029E
S1130A30F0E0EB51FD4F80818093CE008091E40281
S1130A408F5F803218F48093E40202C01092E402B3
S1130A50FF91EF918F910F900BBE0F900FBE0F90EF
S1130A601F901895603230F46F71E62FF0E0EB516F
S1130A70FD4F808308950F931F93CF93DF93C82F67
S1130A808B01D1E2D80F05C06C2FECDFCF5FCD17FF
S1130A9031F0F80181918F018111F6CF01C087E017
S1130AA0DF91CF911F910F910895CF92DF92EF9232
S1130AB0FF920F931F93CF93DF93CDB7DEB7A49725
S1130AC00FB6F894DEBF0FBECDBF062F142FE42E51
S1130AD0F12C9701260F311D21323105ECF5442309
S1130AE0E9F14AE050E09E012F5F3F4F6901B901EF
S1130AF00E947B11F60101900020E9F73197CF01A4
S1130B008C199D096C01181730F4FE01EE0DFF1DC0
S1130B108FE3808311C0811778F4A7014C19510920
S1130B20802F90E060E270E08B519D4F0E94741121
S1130B30802F810F082F0C19802F90E08B519D4F2F
S1130B404C2D1C1508F4412F50E0BE016F5F7F4F00
S1130B500E946B1180E003C084E001C084E0A4968D
S1130B600FB6F894DEBF0FBECDBFDF91CF911F91BA
S1130B700F91FF90EF90DF90CF9008958091C40281
S1130B80811108C08FEF809304011092050181E068
S1130B908093C40208958091C402882321F01092A6
S1130BA0050180E0089581E008958091C4028823BE
S1130BB061F0E5E0F1E090818081990F881F88273A
S1130BC0881F892B808380E0089581E008959091A7
S1130BD0C402992321F08093050180E0089581E007
S1130BE008951F920F920FB60F9211240BB60F9215
S1130BF01F932F933F934F935F936F937F938F93A1
S1130C009F93AF93BF93CF93DF93EF93FF93CFE67D
S1130C10D0E0188188818D7F88838CDD1883FF91D3
S1130C20EF91DF91CF91BF91AF919F918F917F9180
S1130C306F915F914F913F912F911F910F900BBE38
S1130C400F900FBE0F901F901895109280008CE0AB
S1130C508093810088E092E09093890080938800DB
S1130C60EFE6F0E08081826080830895CF93DF9384
S1130C70CDB7DEB728970FB6F894DEBF0FBECDBF51
S1130C807DDF4BDB28DDE1DF84E892E048DE789409
S1130C90E12CF12C55245A940F2EF8E36F2EF02DED
S1130CA077247A940F2EF8ECCF2EF02DD12CABDED6
S1130CB062E172E080E0DFDE8AEA89DF61E18EE2F0
S1130CC0D1DEB12C0E2D1F2D1AC00F5F1F4FB9F4AA
S1130CD06CDFAA24A394AB0C82E08A1558F461E17A
S1130CE080E2C0DE62E180E2BDDE63E180E2BADE82
S1130CF0B52C05C062E16B0D8EE2B4DEBA2C0FDBBD
S1130D00882319F380DE47DFE9DCBCD08E2D9F2DCC
S1130D1004DC8E2D9F2DF4DBA5C0FBD54B015C01BB
S1130D20D4D529833A834B835C836D837E838F83FD
S1130D30988746E068E0C401B8DE46E068E1C50192
S1130D40B4DE20E030E048EC52E469817A818B81A2
S1130D509C810E9490100E94AD0FDC01CB0146E003
S1130D6060E0A3DE20E030E048EC52E46D817E8157
S1130D708F8198850E9490100E94AD0FDC01CB01F9
S1130D8046E060E192DEF6DA182F882311F01FDFC7
S1130D9064C04ADB182F117081FD6BC051DB17DF73
S1130DA04FDB893C08F056C0112309F45BC036DBE5
S1130DB08C3E1CF033DB85319CF430DB8C3E9CF0A4
S1130DC02DDB082E000C990B8C01000F111F880FCE
S1130DD0991F880F991F880F991F080F191F05C0A5
S1130DE00C2D1D2D02C0062D172D1BDB282F880F5F
S1130DF0330BC901880F991F220F331F220F331F92
S1130E00220F331F820F931F38DA99230CF40196B3
S1130E10959587959801280F391F081B190BC9014F
S1130E2099230CF40F9695958795959587959595A7
S1130E3087959595879571DBC80199230CF40F96D6
S1130E409595879595958795959587959595879586
S1130E5057DB08C018E001C018E06ADC112309F46C
S1130E6026CF04C084DA811158CF0AC0812F90D7CD
S1130E70FFCFE6DAACDEE4DA893C08F498CFECCFB5
S1130E8057DC15CFE5ECF2E0108211821282138256
S1130E901482158216821782E2E0F2E01082118237
S1130EA01282138280E090E0A0E8BFE384839583FC
S1130EB0A683B78308958F929F92AF92BF92CF92E9
S1130EC0DF92EF92FF920F931F93CF93DF93CDB7EF
S1130ED0DEB7C859D1090FB6F894DEBF0FBECDBF37
S1130EE06B017C0149015A01CCD7811188C020E0F3
S1130EF030E0A901C701B601C4D7882309F4D1C4DD
S1130F0020E030E040E85FE3C701B601BAD78111C1
S1130F103BC014E0E12E16E5F12E0EE31EE3209112
S1130F200202309103024091040250910502609143
S1130F3006027091070280910802909109027CD503
S1130F40A22EB32EC42ED52EE62EF72E082F192F3F
S1130F502091C5023091C6024091C7025091C80247
S1130F606091C9027091CA028091CB029091CC0227
S1130F7002D5E5ECF2E0208331834283538364831A
S1130F807583868397838DC414E0E12E16E5F12ED4
S1130F900EE31EEB20910202309103024091040201
S1130FA05091050260910602709107028091080237
S1130FB09091090241D5A22EB32EC42ED52EE62E31
S1130FC0F72E082F192F2091C5023091C6024091A7
S1130FD0C7025091C8026091C9027091CA028091FF
S1130FE0CB029091CC02C7D4E5ECF2E020833183AC
S1130FF042835383648375838683978352C4A50194
S11310009401C701B6010E94901020E030E040E84E
S11310105FEB37D7811101C120E030E040E85FE3A6
S1131020C501B4012ED781118CC0209102023091E8
S113103003024091040250910502609106027091EE
S11310400702809108029091090283D518EEE12EDF
S113105014E9F12E07E01AE3EFD4CF57DF4F2883CA
S1131060C158D040CE57DF4F3883C258D040CD57F7
S1131070DF4F4883C358D040CC57DF4F5883C45800
S1131080D040CB57DF4F6883C558D040CA57DF4F95
S11310907883C658D040C957DF4F8883C758D0409B
S11310A0C857DF4F9883C858D04013E0E12E15E5A8
S11310B0F12E0EEB1DE320910202309103024091C8
S11310C0040250910502609106027091070280911A
S11310D0080290910902B0D4CF57DF4FA880C158BD
S11310E0D040CE57DF4FB880C258D040CD57DF4FE5
S11310F0C880C358D040CC57DF4FD880C458D040A4
S1131100CB57DF4FE880C558D040CA57DF4FF8802F
S1131110C658D040C957DF4F0881C758D040C85778
S1131120DF4F1881C858D04026D446D5E2E0F2E01B
S113113020833183428353836483758386839783B7
S1131140B0C32091020230910302409104025091F5
S11311500502609106027091070280910802909145
S11311600902C3D418EEE12E14E9F12E07E01AE3C4
S113117063D4AA962FAFAA97AB963FAFAB97AC9622
S11311804FAFAC97AD965FAFAD97AE966FAFAE97DE
S1131190AF967FAFAF97E0968FAFE097E1969FAFA2
S11311A0E19713E0E12E15E5F12E0EEB1DE32091FE
S11311B002023091030240910402509105026091B1
S11311C0060270910702809108029091090234D4BA
S11311D0AA96AFACAA97AB96BFACAB97AC96CFAC84
S11311E0AC97AD96DFACAD97AE96EFACAE97AF963D
S11311F0FFACAF97E0960FADE097E1961FADE19796
S1131200BAD3DAD4E2E0F2E0208331834283538319
S1131210648375838683978344C320E030E0A90107
S1131220C701B6012ED6882309F4B0C120E030E00E
S113123040E85FE3C701B60124D68111DFC02091E5
S11312400202309103024091040250910502609120
S1131250060270910702809108029091090245D418
S113126018EEE12E14E9F12E07E01AE3E5D36296B5
S11312702FAF629763963FAF639764964FAF6497BF
S113128065965FAF659766966FAF669767967FAF13
S1131290679768968FAF689769969FAF699713E0D1
S11312A0E12E15E5F12E0EEB1DE3209102023091A3
S11312B0030240910402509105026091060270916C
S11312C007028091080290910902B6D36296AFACEE
S11312D062976396BFAC63976496CFAC6497659648
S11312E0DFAC65976696EFAC66976796FFAC679739
S11312F068960FAD689769961FAD69973CD3CF5632
S1131300DF4F2883C159D040CE56DF4F3883C259AE
S1131310D040CD56DF4F4883C359D040CC56DF4F21
S11313205883C459D040CB56DF4F6883C559D04049
S1131330CA56DF4F7883C659D040C956DF4F8883D9
S1131340C759D040C856DF4F9883C859D040A22E01
S1131350B32EC42ED52EE62EF72E082F192F20914A
S1131360C5023091C6024091C7025091C8026091F3
S1131370C9027091CA028091CB029091CC02FBD237
S1131380E5ECF2E0208331834283538364837583E5
S113139086839783CF56DF4F2881C159D040CE56DC
S11313A0DF4F3881C259D040CD56DF4F4881C359F1
S11313B0D040CC56DF4F5881C459D040CB56DF4F74
S11313C06881C559D040CA56DF4F7881C659D0408C
S11313D0C956DF4F8881C759D040C856DF4F98811E
S11313E0C859D040E9D3E2E0F2E02083318342835C
S11313F05383648375838683978353C22091020247
S1131400309103024091040250910502609106025A
S11314107091070280910802909109029AD318EE04
S1131420E12E14E9F12E07E01AE306D329AF3AAF0F
S11314304BAF5CAF6DAF7EAF8FAF21969FAF21975F
S113144013E0E12E15E5F12E0EEB1DE320910202CF
S1131450309103024091040250910502609106020A
S1131460709107028091080290910902E5D2A9AC1B
S1131470BAACCBACDCACEDACFEAC0FAD21961FAD81
S1131480219779D2CF56DF4F2883C159D040CE5609
S1131490DF4F3883C259D040CD56DF4F4883C359FC
S11314A0D040CC56DF4F5883C459D040CB56DF4F81
S11314B06883C559D040CA56DF4F7883C659D04097
S11314C0C956DF4F8883C759D040C856DF4F988329
S11314D0C859D04071D3E2E0F2E0208331834283E3
S11314E053836483758386839783E12CF12C00E80E
S11314F01FEBCF56DF4F2881C159D040CE56DF4F66
S11315003881C259D040CD56DF4F4881C359D040AD
S1131510CC56DF4F5881C459D040CB56DF4F688139
S1131520C559D040CA56DF4F7881C659D040C956F4
S1131530DF4F8881C759D040C856DF4F9881C859BA
S1131540D0407AD2A22EB32EC42ED52EE62EF72E5C
S1131550082F192F2091C5023091C6024091C7026D
S11315605091C8026091C9027091CA028091CB0265
S11315709091CC0200D2E5ECF2E0208331834283E7
S1131580538364837583868397838BC120E030E023
S113159040E85FE3C501B40174D48111BFC0209158
S11315A002023091030240910402509105026091BD
S11315B00602709107028091080290910902C9D233
S11315C018EEE12E14E9F12E07E01AE335D229A32F
S11315D03AA34BA35CA36DA37EA38FA398A713E0A8
S11315E0E12E15E5F12E0EEB1DE320910202309160
S11315F00302409104025091050260910602709129
S11316000702809108029091090216D2A9A0BAA0FB
S1131610CBA0DCA0EDA0FEA00FA118A5ACD1CF56A5
S1131620DF4F2883C159D040CE56DF4F3883C2598B
S1131630D040CD56DF4F4883C359D040CC56DF4FFE
S11316405883C459D040CB56DF4F6883C559D04026
S1131650CA56DF4F7883C659D040C956DF4F8883B6
S1131660C759D040C856DF4F9883C859D040A22EDE
S1131670B32EC42ED52EE62EF72E082F192F209127
S1131680C5023091C6024091C7025091C8026091D0
S1131690C9027091CA028091CB029091CC026BD1A5
S11316A0E5ECF2E0208331834283538364837583C2
S11316B086839783CF56DF4F2881C159D040CE56B9
S11316C0DF4F3881C259D040CD56DF4F4881C359CE
S11316D0D040CC56DF4F5881C459D040CB56DF4F51
S11316E06881C559D040CA56DF4F7881C659D04069
S11316F0C956DF4F8881C759D040C856DF4F9881FB
S1131700C859D04059D2E2E0F2E0208331834283C9
S113171053836483758386839783C3C020910202B5
S11317203091030240910402509105026091060237
S1131730709107028091080290910902D6D118EEA7
S1131740E12E14E9F12E07E01AE376D129873A87CE
S11317504B875C876D877E878F87988B13E0E12E9C
S113176015E5F12E0EEB1DE32091020230910302E8
S113177040910402509105026091060270910702A3
S1131780809108029091090257D1A984BA84CB842C
S1131790DC84ED84FE840F851889EDD0CF56DF4FAD
S11317A02883C159D040CE56DF4F3883C259D04028
S11317B0CD56DF4F4883C359D040CC56DF4F5883B2
S11317C0C459D040CB56DF4F6883C559D040CA5660
S11317D0DF4F7883C659D040C956DF4F8883C75935
S11317E0D040C856DF4F9883C859D040E5D1E2E0D5
S11317F0F2E0208331834283538364837583868339
S11318009783E12CF12C00E81FEBCF56DF4F2881A2
S1131810C159D040CE56DF4F3881C259D040CD5641
S1131820DF4F4881C359D040CC56DF4F5881C4594B
S1131830D040CB56DF4F6881C559D040CA56DF4FE0
S11318407881C659D040C956DF4F8881C759D040E6
S1131850C856DF4F9881C859D040EED0A22EB32E7F
S1131860C42ED52EE62EF72E082F192F2091C5024F
S11318703091C6024091C7025091C8026091C902DA
S11318807091CA028091CB029091CC0274D0E5ECA5
S1131890F2E0208331834283538364837583868398
S11318A09783C856DF4F0FB6F894DEBF0FBECDBF87
S11318B0DF91CF911F910F91FF90EF90DF90CF9028
S11318C0BF90AF909F908F900895CF93DF93CDB743
S11318D0DEB728970FB6F894DEBF0FBECDBF2091B8
S11318E0020230910302409104025091050260917A
S11318F006027091070280910802909109025CD15E
S113190028960FB6F894DEBF0FBECDBFDF91CF91FE
S11319100895CF93DF9320E030E040E05FE36091EF
S1131920C9027091CA028091CB029091CC0245D237
S113193014D39B01772314F42F5F3F4FE901D5950E
S1131940C79520E030E040E05FE36091C50270910C
S1131950C6028091C7029091C8022FD2FED29B0189
S1131960772314F42F5F3F4FB90175956795CE0126
S1131970DF91CF910895AF92BF92CF92DF92EF9211
S1131980FF920F931F93CF93DF93CDB7DEB7689782
S11319900FB6F894DEBF0FBECDBF29873A874B87B9
S11319A05C876D877E878F87988BA98ABA8ACB8A52
S11319B0DC8AED8AFE8A0F8B188F2D853E854F8534
S11319C058896D897E898F89988DF7D1162FE72ED6
S11319D0F82E092F29853A854B855C8569897A8992
S11319E08B899C89EAD1262F462F572F682F792F70
S11319F049835A836B837C83412F5E2D6F2D702F17
S1131A004D835E836F8378873A814B815C81612F3C
S1131A107E818F81988568960FB6F894DEBF0FBEDD
S1131A20CDBFDF91CF911F910F91FF90EF90DF9089
S1131A30CF90BF90AF9008958F929F92AF92BF9234
S1131A40DF92EF92FF920F931F93CF93DF93CDB763
S1131A50DEB760970FB6F894DEBF0FBECDBF2987FF
S1131A603A874B875C876D877E878F87988B470182
S1131A7058012D853E854F855889C801B70150D33B
S1131A80162FD72EF82E092F29853A854B855C858C
S1131A90C501B40145D3262F462F572F682F792F20
S1131AA049835A836B837C83412F5D2D6F2D702F67
S1131AB04D835E836F8378873A814B815C81612F8C
S1131AC07E818F81988560960FB6F894DEBF0FBE35
S1131AD0CDBFDF91CF911F910F91FF90EF90DF90D9
S1131AE0BF90AF909F908F900895CF93DF93CDB721
S1131AF0DEB760970FB6F894DEBF0FBECDBF29875F
S1131B003A874B875C878F87988B89859A85AB85C5
S1131B10BC85B058262FEF853889462F572F6E2F56
S1131B20732F49835A836B837C838D839E83AF8316
S1131B30B8873A814B815C81682F7E818F8198853B
S1131B4060960FB6F894DEBF0FBECDBFDF91CF9184
S1131B500895CF93DF93CDB7DEB760970FB6F894AF
S1131B60DEBF0FBECDBF6D877E878F87988BF32F27
S1131B70E42F352F8D859E85AF85B889B05889832C
S1131B809A83AB83BC83422F5F2F6E2F732F4D83B9
S1131B905E836F8378873A814B815C81622F7E817B
S1131BA0282F8F81988560960FB6F894DEBF0FBEFC
S1131BB0CDBFDF91CF9108954F925F926F927F9244
S1131BC08F929F92AF92BF92CF92DF92EF92FF9249
S1131BD0CF93DF93CDB7DEB764970FB6F894DEBF2B
S1131BE00FBECDBF29873A874B875C876D877E8779
S1131BF08F87988B89849A84AB84BC84CD84DE845B
S1131C00EF84F888A5019401C501B40189D22B01A0
S1131C103C01A7019601C701B60182D2698B7A8B78
S1131C208B8B9C8B29893A894B895C89C301B201CE
S1131C30C4D0DDD22B013C019B01AC01C501B40130
S1131C4024D1B62E462F572F682F792F49835A83D4
S1131C506B837C83A3019201C701B60116D1E62FE1
S1131C60462F572F682F792F4D835E836F83788794
S1131C702B2D3A814B815C816E2F7E818F819885DB
S1131C8064960FB6F894DEBF0FBECDBFDF91CF913F
S1131C90FF90EF90DF90CF90BF90AF909F908F9088
S1131CA07F906F905F904F9008951092050390E09D
S1131CB08930910508F060C0FC018827E058FF4F87
S1131CC08F4FE8C28FE49BE4A0E0809305039093D8
S1131CD00603A093070359C086E1E4E2F2E0A5E01D
S1131CE0B3E001900D928A95E1F74FC080E1EAE3F9
S1131CF0F2E0A5E0B3E001900D928A95E1F745C0CA
S1131D0081E1EAE4F2E0A5E0B3E001900D928A9566
S1131D10E1F73BC083E1EBE5F2E0A5E0B3E001903D
S1131D200D928A95E1F731C088E0EEE6F2E0A5E095
S1131D30B3E001900D928A95E1F727C083E1E6E7CD
S1131D40F2E0A5E0B3E001900D928A95E1F71DC0A1
S1131D508FE0E9E8F2E0A5E0B3E001900D928A9506
S1131D60E1F713C08FE0E8E9F2E0A5E0B3E0019009
S1131D700D928A95E1F709C088E0E7EAF2E0A5E070
S1131D80B3E001900D928A95E1F785E093E0089520
S1131D90CF93DF93C82F0E9403058C2F86DFEC01BD
S1131DA06FEA72E080E00E943B05BE0188E00E9479
S1131DB03B05DF91CF9108955058BB27AA270ED039
S1131DC075C166D130F06BD120F031F49F3F11F42E
S1131DD01EF45BC10EF4E095E7FB51C1E92F77D106
S1131DE080F3BA17620773078407950718F071F434
S1131DF09EF58FC10EF4E0950B2EBA2FA02D0B018A
S1131E00B90190010C01CA01A0011124FF27591B3B
S1131E1099F0593F50F4503E68F11A16F040A22F41
S1131E20232F342F4427585FF3CF469537952795B2
S1131E30A795F0405395C9F77EF41F16BA0B620BB1
S1131E40730B840BBAF09150A1F0FF0FBB1F661FF8
S1131E50771F881FC2F70EC0BA0F621F731F841F3B
S1131E6048F4879577956795B795F7959E3F08F061
S1131E70B3CF9395880F08F09927EE0F9795879520
S1131E800895D9D008F481E008950CD00FC107D18A
S1131E9040F0FED030F021F45F3F19F0F0C0511152
S1131EA039C1F3C014D198F39923C9F35523B1F37D
S1131EB0951B550BBB27AA2762177307840738F0B5
S1131EC09F5F5F4F220F331F441FAA1FA9F333D014
S1131ED00E2E3AF0E0E830D091505040E695001CC8
S1131EE0CAF729D0FE2F27D0660F771F881FBB1F84
S1131EF0261737074807AB07B0E809F0BB0B802D5E
S1131F00BF01FF2793585F4F2AF09E3F510568F0A9
S1131F10B6C000C15F3FECF3983EDCF3869577953D
S1131F206795B795F7959F5FC9F7880F911D9695AB
S1131F30879597F90895E1E0660F771F881FBB1F07
S1131F40621773078407BA0720F0621B730B840BB4
S1131F50BA0BEE1F88F7E095089504D06894B11188
S1131F60D9C00895BCD088F09F5790F0B92F992715
S1131F70B751A0F0D1F0660F771F881F991F1AF090
S1131F80BA95C9F712C0B13081F0C3D0B1E0089559
S1131F90C0C0672F782F8827B85F39F0B93FCCF3DA
S1131FA0869577956795B395D9F73EF49095809586
S1131FB0709561957F4F8F4F9F4F0895E89409C0A6
S1131FC097FB3EF490958095709561957F4F8F4F68
S1131FD09F4F9923A9F0F92F96E9BB279395F6957E
S1131FE0879577956795B795F111F8CFFAF4BB0FFC
S1131FF011F460FF1BC06F5F7F4F8F4F9F4F16C060
S1132000882311F096E911C0772321F09EE8872FE9
S1132010762F05C0662371F096E8862F70E060E0A5
S11320202AF09A95660F771F881FDAF7880F96951E
S1132030879597F90895990F0008550FAA0BE0E8C2
S1132040FEEF16161706E807F907C0F01216130676
S1132050E407F50798F0621B730B840B950B39F4B6
S11320600A2661F0232B242B252B21F408950A261C
S113207009F4A140A6958FEF811D811D089597F95C
S11320809F6780E870E060E008959FEF80EC08951A
S113209000240A9416161706180609060895002443
S11320A00A9412161306140605060895092E0394BD
S11320B0000C11F4882352F0BB0F40F4BF2B11F431
S11320C060FF04C06F5F7F4F8F4F9F4F089557FD90
S11320D09058440F551F59F05F3F71F04795880F92
S11320E097FB991F61F09F3F79F087950895121629
S11320F013061406551FF2CF4695F1DF08C01616D5
S113210017061806991FF1CF869571056105089485
S11321100895E894BB2766277727CB0197F908959C
S11321200BD0C4CFB5DF28F0BADF18F0952309F03F
S1132130A6CFABCF1124EECFCADFA0F3959FD1F386
S1132140950F50E0551F629FF001729FBB27F00D61
S1132150B11D639FAA27F00DB11DAA1F649F6627B6
S1132160B00DA11D661F829F2227B00DA11D621F05
S1132170739FB00DA11D621F839FA00D611D221FBF
S1132180749F3327A00D611D231F849F600D211DA3
S1132190822F762F6A2F11249F5750408AF0E1F046
S11321A088234AF0EE0FFF1FBB1F661F771F881F8F
S11321B091505040A9F79E3F510570F060CFAACFCF
S11321C05F3FECF3983EDCF3869577956795B7957A
S11321D0F795E7959F5FC1F7FE2B880F911D9695A4
S11321E0879597F9089511F40EF44FCF3EC077DF29
S11321F0D0F39923D9F3CEF39F57550B87FF43D0E0
S11322000024A0E640EA900180585695979528F45A
S1132210805C660F771F881F20F026173707480752
S113222030F4621B730B840B202931294A2BA695A9
S113223017940794202531254A2758F7660F771FEE
S1132240881F20F026173707480730F4620B730BFA
S1132250840B200D311D411DA09581F7B901842FF8
S11322609158880F9695879508959F3F31F0915026
S113227020F4879577956795B795880F911D969566
S1132280879597F9089591505040660F771F881FDE
S1132290D2F70895EE0FFF1F881F8BBF0790F691AA
S11322A0E02D199409D0A59F900DB49F900DA49F83
S11322B0800D911D11240895A29FB001B39FC00108
S11322C0A39F700D811D1124911DB29F700D811D5E
S11322D01124911D0895FB01DC0102C001900D92AF
S11322E041505040D8F70895DC0101C06D9341502E
S11322F05040E0F708954532510518F4423008F093
S113230004C0FB011082CB010895BB274A3031F48D
S1132310992322F4BDE2909581959F4F01C0BB277C
S1132320FB015527AA27880F991FAA1FA41710F08D
S1132330A41B83955051B9F7A05DAA3308F0A95D99
S1132340A193009779F7B111B1931192CB0100C019
S1132350DC01FC01672F71917723E1F7329704C008
S11323607C916D9370836291AE17BF07C8F3089593
S1072370F894FFCF0B
S11323740101000000000000803F1B5B30681B5B10
S11323846A0077616974696E672070617469656E47
S1132394746C79006D6F64756C206E6F7420696E53
S11323A4697469616C697A656400706F696E7465D7
S11323B47220746F204E554C4C00627566666572CB
S11323C4206E6F7420726561647900696E76616C45
S11323D4696420706172616D6574657273007469F7
S11323E46D656F7574006D6F64756C20616C7265D6
S11323F461647920696E697400737472696E67200C
S1132404746F206C6F6E6700656E67696E65206615
S113241461696C75726500756E6B6E6F776E0045DD
S10B242472726F723A2000008D
S9030000FC
